{
  "_format": "hh-sol-artifact-1",
  "contractName": "BondingCurveToken",
  "sourceName": "contracts/BondingCurveToken.sol",
  "abi": [
    {
      "inputs": [
        {
          "internalType": "string",
          "name": "name",
          "type": "string"
        },
        {
          "internalType": "string",
          "name": "symbol",
          "type": "string"
        }
      ],
      "stateMutability": "nonpayable",
      "type": "constructor"
    },
    {
      "anonymous": false,
      "inputs": [
        {
          "indexed": true,
          "internalType": "address",
          "name": "owner",
          "type": "address"
        },
        {
          "indexed": true,
          "internalType": "address",
          "name": "spender",
          "type": "address"
        },
        {
          "indexed": false,
          "internalType": "uint256",
          "name": "value",
          "type": "uint256"
        }
      ],
      "name": "Approval",
      "type": "event"
    },
    {
      "anonymous": false,
      "inputs": [
        {
          "indexed": true,
          "internalType": "address",
          "name": "from",
          "type": "address"
        },
        {
          "indexed": true,
          "internalType": "address",
          "name": "to",
          "type": "address"
        },
        {
          "indexed": false,
          "internalType": "uint256",
          "name": "value",
          "type": "uint256"
        }
      ],
      "name": "Transfer",
      "type": "event"
    },
    {
      "inputs": [
        {
          "internalType": "address",
          "name": "owner",
          "type": "address"
        },
        {
          "internalType": "address",
          "name": "spender",
          "type": "address"
        }
      ],
      "name": "allowance",
      "outputs": [
        {
          "internalType": "uint256",
          "name": "",
          "type": "uint256"
        }
      ],
      "stateMutability": "view",
      "type": "function"
    },
    {
      "inputs": [
        {
          "internalType": "address",
          "name": "spender",
          "type": "address"
        },
        {
          "internalType": "uint256",
          "name": "amount",
          "type": "uint256"
        }
      ],
      "name": "approve",
      "outputs": [
        {
          "internalType": "bool",
          "name": "",
          "type": "bool"
        }
      ],
      "stateMutability": "nonpayable",
      "type": "function"
    },
    {
      "inputs": [
        {
          "internalType": "address",
          "name": "account",
          "type": "address"
        }
      ],
      "name": "balanceOf",
      "outputs": [
        {
          "internalType": "uint256",
          "name": "",
          "type": "uint256"
        }
      ],
      "stateMutability": "view",
      "type": "function"
    },
    {
      "inputs": [],
      "name": "buyTokens",
      "outputs": [],
      "stateMutability": "payable",
      "type": "function"
    },
    {
      "inputs": [
        {
          "internalType": "uint256",
          "name": "tokenAmount",
          "type": "uint256"
        },
        {
          "internalType": "uint256",
          "name": "supply",
          "type": "uint256"
        }
      ],
      "name": "calculateSEIForTokens",
      "outputs": [
        {
          "internalType": "uint256",
          "name": "",
          "type": "uint256"
        }
      ],
      "stateMutability": "pure",
      "type": "function"
    },
    {
      "inputs": [
        {
          "internalType": "uint256",
          "name": "ethAmount",
          "type": "uint256"
        },
        {
          "internalType": "uint256",
          "name": "supply",
          "type": "uint256"
        }
      ],
      "name": "calculateTokensForSEI",
      "outputs": [
        {
          "internalType": "uint256",
          "name": "",
          "type": "uint256"
        }
      ],
      "stateMutability": "pure",
      "type": "function"
    },
    {
      "inputs": [],
      "name": "decimals",
      "outputs": [
        {
          "internalType": "uint8",
          "name": "",
          "type": "uint8"
        }
      ],
      "stateMutability": "view",
      "type": "function"
    },
    {
      "inputs": [
        {
          "internalType": "address",
          "name": "spender",
          "type": "address"
        },
        {
          "internalType": "uint256",
          "name": "subtractedValue",
          "type": "uint256"
        }
      ],
      "name": "decreaseAllowance",
      "outputs": [
        {
          "internalType": "bool",
          "name": "",
          "type": "bool"
        }
      ],
      "stateMutability": "nonpayable",
      "type": "function"
    },
    {
      "inputs": [],
      "name": "getCurrentPrice",
      "outputs": [
        {
          "internalType": "uint256",
          "name": "",
          "type": "uint256"
        }
      ],
      "stateMutability": "view",
      "type": "function"
    },
    {
      "inputs": [
        {
          "internalType": "address",
          "name": "spender",
          "type": "address"
        },
        {
          "internalType": "uint256",
          "name": "addedValue",
          "type": "uint256"
        }
      ],
      "name": "increaseAllowance",
      "outputs": [
        {
          "internalType": "bool",
          "name": "",
          "type": "bool"
        }
      ],
      "stateMutability": "nonpayable",
      "type": "function"
    },
    {
      "inputs": [],
      "name": "k",
      "outputs": [
        {
          "internalType": "uint256",
          "name": "",
          "type": "uint256"
        }
      ],
      "stateMutability": "view",
      "type": "function"
    },
    {
      "inputs": [],
      "name": "name",
      "outputs": [
        {
          "internalType": "string",
          "name": "",
          "type": "string"
        }
      ],
      "stateMutability": "view",
      "type": "function"
    },
    {
      "inputs": [],
      "name": "reserveBalance",
      "outputs": [
        {
          "internalType": "uint256",
          "name": "",
          "type": "uint256"
        }
      ],
      "stateMutability": "view",
      "type": "function"
    },
    {
      "inputs": [
        {
          "internalType": "uint256",
          "name": "amount",
          "type": "uint256"
        }
      ],
      "name": "sellTokens",
      "outputs": [],
      "stateMutability": "nonpayable",
      "type": "function"
    },
    {
      "inputs": [],
      "name": "symbol",
      "outputs": [
        {
          "internalType": "string",
          "name": "",
          "type": "string"
        }
      ],
      "stateMutability": "view",
      "type": "function"
    },
    {
      "inputs": [],
      "name": "totalSupply",
      "outputs": [
        {
          "internalType": "uint256",
          "name": "",
          "type": "uint256"
        }
      ],
      "stateMutability": "view",
      "type": "function"
    },
    {
      "inputs": [
        {
          "internalType": "address",
          "name": "to",
          "type": "address"
        },
        {
          "internalType": "uint256",
          "name": "amount",
          "type": "uint256"
        }
      ],
      "name": "transfer",
      "outputs": [
        {
          "internalType": "bool",
          "name": "",
          "type": "bool"
        }
      ],
      "stateMutability": "nonpayable",
      "type": "function"
    },
    {
      "inputs": [
        {
          "internalType": "address",
          "name": "from",
          "type": "address"
        },
        {
          "internalType": "address",
          "name": "to",
          "type": "address"
        },
        {
          "internalType": "uint256",
          "name": "amount",
          "type": "uint256"
        }
      ],
      "name": "transferFrom",
      "outputs": [
        {
          "internalType": "bool",
          "name": "",
          "type": "bool"
        }
      ],
      "stateMutability": "nonpayable",
      "type": "function"
    },
    {
      "stateMutability": "payable",
      "type": "receive"
    }
  ],
  "bytecode": "0x608060405234801562000010575f80fd5b50604051620013af380380620013af833981016040819052620000339162000121565b8181600362000043838262000213565b50600462000052828262000213565b5050600160055550620002db915050565b634e487b7160e01b5f52604160045260245ffd5b5f82601f83011262000087575f80fd5b81516001600160401b0380821115620000a457620000a462000063565b604051601f8301601f19908116603f01168101908282118183101715620000cf57620000cf62000063565b81604052838152602092508683858801011115620000eb575f80fd5b5f91505b838210156200010e5785820183015181830184015290820190620000ef565b5f93810190920192909252949350505050565b5f806040838503121562000133575f80fd5b82516001600160401b03808211156200014a575f80fd5b620001588683870162000077565b935060208501519150808211156200016e575f80fd5b506200017d8582860162000077565b9150509250929050565b600181811c908216806200019c57607f821691505b602082108103620001bb57634e487b7160e01b5f52602260045260245ffd5b50919050565b601f8211156200020e575f81815260208120601f850160051c81016020861015620001e95750805b601f850160051c820191505b818110156200020a57828155600101620001f5565b5050505b505050565b81516001600160401b038111156200022f576200022f62000063565b620002478162000240845462000187565b84620001c1565b602080601f8311600181146200027d575f8415620002655750858301515b5f19600386901b1c1916600185901b1785556200020a565b5f85815260208120601f198616915b82811015620002ad578886015182559484019460019091019084016200028c565b5085821015620002cb57878501515f19600388901b60f8161c191681555b5050505050600190811b01905550565b6110c680620002e95f395ff3fe608060405260043610610108575f3560e01c8063a10954fe11610092578063d0febe4c11610062578063d0febe4c146102bf578063d91811fd146102c7578063dc959dd5146102e6578063dd62ed3e14610305578063eb91d37e14610324575f80fd5b8063a10954fe14610252578063a457c2d714610267578063a9059cbb14610286578063b4f40c61146102a5575f80fd5b8063313ce567116100d8578063313ce567146101b157806339509351146101cc5780636c11bcd3146101eb57806370a082311461020a57806395d89b411461023e575f80fd5b806306fdde031461011b578063095ea7b31461014557806318160ddd1461017457806323b872dd14610192575f80fd5b3661011757610115610338565b005b5f80fd5b348015610126575f80fd5b5061012f610428565b60405161013c9190610db5565b60405180910390f35b348015610150575f80fd5b5061016461015f366004610e1b565b6104b8565b604051901515815260200161013c565b34801561017f575f80fd5b506002545b60405190815260200161013c565b34801561019d575f80fd5b506101646101ac366004610e43565b6104d1565b3480156101bc575f80fd5b506040516012815260200161013c565b3480156101d7575f80fd5b506101646101e6366004610e1b565b6104f4565b3480156101f6575f80fd5b50610115610205366004610e7c565b610515565b348015610215575f80fd5b50610184610224366004610e93565b6001600160a01b03165f9081526020819052604090205490565b348015610249575f80fd5b5061012f61064d565b34801561025d575f80fd5b5061018460065481565b348015610272575f80fd5b50610164610281366004610e1b565b61065c565b348015610291575f80fd5b506101646102a0366004610e1b565b6106d6565b3480156102b0575f80fd5b5061018466038d7ea4c6800081565b6101156106e3565b3480156102d2575f80fd5b506101846102e1366004610eac565b6106ff565b3480156102f1575f80fd5b50610184610300366004610eac565b610742565b348015610310575f80fd5b5061018461031f366004610ecc565b61078a565b34801561032f575f80fd5b506101846107b4565b5f34116103855760405162461bcd60e51b815260206004820152601660248201527553656e642053454920746f2062757920746f6b656e7360501b60448201526064015b60405180910390fd5b5f61038f60025490565b90505f61039e6012600a610ff1565b6103a834846106ff565b6103b29190610ffc565b90505f81116104035760405162461bcd60e51b815260206004820152601d60248201527f4e6f7420656e6f7567682053454920746f206d696e7420746f6b656e73000000604482015260640161037c565b3460065f8282546104149190611013565b90915550610424905033826107d5565b5050565b60606003805461043790611026565b80601f016020809104026020016040519081016040528092919081815260200182805461046390611026565b80156104ae5780601f10610485576101008083540402835291602001916104ae565b820191905f5260205f20905b81548152906001019060200180831161049157829003601f168201915b5050505050905090565b5f336104c5818585610892565b60019150505b92915050565b5f336104de8582856109b6565b6104e9858585610a2e565b506001949350505050565b5f336104c5818585610506838361078a565b6105109190611013565b610892565b61051d610bd0565b335f908152602081905260409020548111156105725760405162461bcd60e51b8152602060048201526014602482015273496e73756666696369656e742062616c616e636560601b604482015260640161037c565b5f61057c60025490565b90505f61058b6012600a610ff1565b6105958484610742565b61059f9190610ffc565b90506006548111156105f35760405162461bcd60e51b815260206004820152601960248201527f4e6f7420656e6f7567682053454920696e207265736572766500000000000000604482015260640161037c565b6105fd3384610c29565b8060065f82825461060e919061105e565b9091555050604051339082156108fc029083905f818181858888f1935050505015801561063d573d5f803e3d5ffd5b50505061064a6001600555565b50565b60606004805461043790611026565b5f3381610669828661078a565b9050838110156106c95760405162461bcd60e51b815260206004820152602560248201527f45524332303a2064656372656173656420616c6c6f77616e63652062656c6f77604482015264207a65726f60d81b606482015260840161037c565b6104e98286868403610892565b5f336104c5818585610a2e565b6106eb610bd0565b6106f3610338565b6106fd6001600555565b565b5f8061073a61070e8480610ffc565b66038d7ea4c68000610721876002610ffc565b61072b9190611071565b6107359190611013565b610d51565b949350505050565b5f8061074e848461105e565b905061075a8180610ffc565b6107648480610ffc565b61076e919061105e565b610780600266038d7ea4c68000611071565b61073a9190610ffc565b6001600160a01b039182165f90815260016020908152604080832093909416825291909152205490565b5f66038d7ea4c680006107c660025490565b6107d09190610ffc565b905090565b6001600160a01b03821661082b5760405162461bcd60e51b815260206004820152601f60248201527f45524332303a206d696e7420746f20746865207a65726f206164647265737300604482015260640161037c565b8060025f82825461083c9190611013565b90915550506001600160a01b0382165f81815260208181526040808320805486019055518481527fddf252ad1be2c89b69c2b068fc378daa952ba7f163c4a11628f55a4df523b3ef910160405180910390a35050565b6001600160a01b0383166108f45760405162461bcd60e51b8152602060048201526024808201527f45524332303a20617070726f76652066726f6d20746865207a65726f206164646044820152637265737360e01b606482015260840161037c565b6001600160a01b0382166109555760405162461bcd60e51b815260206004820152602260248201527f45524332303a20617070726f766520746f20746865207a65726f206164647265604482015261737360f01b606482015260840161037c565b6001600160a01b038381165f8181526001602090815260408083209487168084529482529182902085905590518481527f8c5be1e5ebec7d5bd14f71427d1e84f3dd0314c0f7b2291e5b200ac8c7c3b92591015b60405180910390a3505050565b5f6109c1848461078a565b90505f198114610a285781811015610a1b5760405162461bcd60e51b815260206004820152601d60248201527f45524332303a20696e73756666696369656e7420616c6c6f77616e6365000000604482015260640161037c565b610a288484848403610892565b50505050565b6001600160a01b038316610a925760405162461bcd60e51b815260206004820152602560248201527f45524332303a207472616e736665722066726f6d20746865207a65726f206164604482015264647265737360d81b606482015260840161037c565b6001600160a01b038216610af45760405162461bcd60e51b815260206004820152602360248201527f45524332303a207472616e7366657220746f20746865207a65726f206164647260448201526265737360e81b606482015260840161037c565b6001600160a01b0383165f9081526020819052604090205481811015610b6b5760405162461bcd60e51b815260206004820152602660248201527f45524332303a207472616e7366657220616d6f756e7420657863656564732062604482015265616c616e636560d01b606482015260840161037c565b6001600160a01b038481165f81815260208181526040808320878703905593871680835291849020805487019055925185815290927fddf252ad1be2c89b69c2b068fc378daa952ba7f163c4a11628f55a4df523b3ef910160405180910390a3610a28565b600260055403610c225760405162461bcd60e51b815260206004820152601f60248201527f5265656e7472616e637947756172643a207265656e7472616e742063616c6c00604482015260640161037c565b6002600555565b6001600160a01b038216610c895760405162461bcd60e51b815260206004820152602160248201527f45524332303a206275726e2066726f6d20746865207a65726f206164647265736044820152607360f81b606482015260840161037c565b6001600160a01b0382165f9081526020819052604090205481811015610cfc5760405162461bcd60e51b815260206004820152602260248201527f45524332303a206275726e20616d6f756e7420657863656564732062616c616e604482015261636560f01b606482015260840161037c565b6001600160a01b0383165f818152602081815260408083208686039055600280548790039055518581529192917fddf252ad1be2c89b69c2b068fc378daa952ba7f163c4a11628f55a4df523b3ef91016109a9565b5f815f03610d6057505f919050565b5f6002610d6e846001611013565b610d789190611071565b9050825b80821015610dae575080600281610d938187611071565b610d9d9190611013565b610da79190611071565b9150610d7c565b9392505050565b5f6020808352835180828501525f5b81811015610de057858101830151858201604001528201610dc4565b505f604082860101526040601f19601f8301168501019250505092915050565b80356001600160a01b0381168114610e16575f80fd5b919050565b5f8060408385031215610e2c575f80fd5b610e3583610e00565b946020939093013593505050565b5f805f60608486031215610e55575f80fd5b610e5e84610e00565b9250610e6c60208501610e00565b9150604084013590509250925092565b5f60208284031215610e8c575f80fd5b5035919050565b5f60208284031215610ea3575f80fd5b610dae82610e00565b5f8060408385031215610ebd575f80fd5b50508035926020909101359150565b5f8060408385031215610edd575f80fd5b610ee683610e00565b9150610ef460208401610e00565b90509250929050565b634e487b7160e01b5f52601160045260245ffd5b600181815b80851115610f4b57815f1904821115610f3157610f31610efd565b80851615610f3e57918102915b93841c9390800290610f16565b509250929050565b5f82610f61575060016104cb565b81610f6d57505f6104cb565b8160018114610f835760028114610f8d57610fa9565b60019150506104cb565b60ff841115610f9e57610f9e610efd565b50506001821b6104cb565b5060208310610133831016604e8410600b8410161715610fcc575081810a6104cb565b610fd68383610f11565b805f1904821115610fe957610fe9610efd565b029392505050565b5f610dae8383610f53565b80820281158282048414176104cb576104cb610efd565b808201808211156104cb576104cb610efd565b600181811c9082168061103a57607f821691505b60208210810361105857634e487b7160e01b5f52602260045260245ffd5b50919050565b818103818111156104cb576104cb610efd565b5f8261108b57634e487b7160e01b5f52601260045260245ffd5b50049056fea2646970667358221220d5fbdd1e7d66a9fae25f3124da710ff43ef146eb0e2a6a9275d0e7fb7943e9e964736f6c63430008140033",
  "linkReferences": {},
  "deployedLinkReferences": {}
}