{
  "_format": "hh-sol-artifact-1",
  "contractName": "Bonding",
  "sourceName": "contracts/Bonding.sol",
  "abi": [
    {
      "inputs": [],
      "stateMutability": "nonpayable",
      "type": "constructor"
    },
    {
      "inputs": [],
      "name": "InvalidInitialization",
      "type": "error"
    },
    {
      "inputs": [],
      "name": "NotInitializing",
      "type": "error"
    },
    {
      "inputs": [
        {
          "internalType": "address",
          "name": "owner",
          "type": "address"
        }
      ],
      "name": "OwnableInvalidOwner",
      "type": "error"
    },
    {
      "inputs": [
        {
          "internalType": "address",
          "name": "account",
          "type": "address"
        }
      ],
      "name": "OwnableUnauthorizedAccount",
      "type": "error"
    },
    {
      "inputs": [],
      "name": "ReentrancyGuardReentrantCall",
      "type": "error"
    },
    {
      "inputs": [
        {
          "internalType": "address",
          "name": "token",
          "type": "address"
        }
      ],
      "name": "SafeERC20FailedOperation",
      "type": "error"
    },
    {
      "anonymous": false,
      "inputs": [
        {
          "indexed": true,
          "internalType": "address",
          "name": "token",
          "type": "address"
        },
        {
          "indexed": false,
          "internalType": "uint256",
          "name": "amount0",
          "type": "uint256"
        },
        {
          "indexed": false,
          "internalType": "uint256",
          "name": "amount1",
          "type": "uint256"
        }
      ],
      "name": "Deployed",
      "type": "event"
    },
    {
      "anonymous": false,
      "inputs": [
        {
          "indexed": true,
          "internalType": "address",
          "name": "token",
          "type": "address"
        },
        {
          "indexed": true,
          "internalType": "address",
          "name": "pair",
          "type": "address"
        }
      ],
      "name": "Graduated",
      "type": "event"
    },
    {
      "anonymous": false,
      "inputs": [
        {
          "indexed": false,
          "internalType": "uint64",
          "name": "version",
          "type": "uint64"
        }
      ],
      "name": "Initialized",
      "type": "event"
    },
    {
      "anonymous": false,
      "inputs": [
        {
          "indexed": true,
          "internalType": "address",
          "name": "token",
          "type": "address"
        },
        {
          "indexed": true,
          "internalType": "address",
          "name": "pair",
          "type": "address"
        },
        {
          "indexed": false,
          "internalType": "uint256",
          "name": "",
          "type": "uint256"
        }
      ],
      "name": "Launched",
      "type": "event"
    },
    {
      "anonymous": false,
      "inputs": [
        {
          "indexed": true,
          "internalType": "address",
          "name": "previousOwner",
          "type": "address"
        },
        {
          "indexed": true,
          "internalType": "address",
          "name": "newOwner",
          "type": "address"
        }
      ],
      "name": "OwnershipTransferred",
      "type": "event"
    },
    {
      "inputs": [],
      "name": "assetGradThreshold",
      "outputs": [
        {
          "internalType": "uint256",
          "name": "",
          "type": "uint256"
        }
      ],
      "stateMutability": "view",
      "type": "function"
    },
    {
      "inputs": [],
      "name": "assetLaunchFee",
      "outputs": [
        {
          "internalType": "uint256",
          "name": "",
          "type": "uint256"
        }
      ],
      "stateMutability": "view",
      "type": "function"
    },
    {
      "inputs": [
        {
          "internalType": "uint256",
          "name": "amountIn",
          "type": "uint256"
        },
        {
          "internalType": "address",
          "name": "tokenAddress",
          "type": "address"
        },
        {
          "internalType": "address",
          "name": "assetToken",
          "type": "address"
        }
      ],
      "name": "buyWithAsset",
      "outputs": [
        {
          "internalType": "bool",
          "name": "",
          "type": "bool"
        }
      ],
      "stateMutability": "nonpayable",
      "type": "function"
    },
    {
      "inputs": [
        {
          "internalType": "address",
          "name": "tokenAddress",
          "type": "address"
        }
      ],
      "name": "buyWithSei",
      "outputs": [
        {
          "internalType": "bool",
          "name": "",
          "type": "bool"
        }
      ],
      "stateMutability": "payable",
      "type": "function"
    },
    {
      "inputs": [],
      "name": "dragonswapFactory",
      "outputs": [
        {
          "internalType": "contract IDragonswapFactory",
          "name": "",
          "type": "address"
        }
      ],
      "stateMutability": "view",
      "type": "function"
    },
    {
      "inputs": [],
      "name": "dragonswapRouter",
      "outputs": [
        {
          "internalType": "contract IDragonswapRouter",
          "name": "",
          "type": "address"
        }
      ],
      "stateMutability": "view",
      "type": "function"
    },
    {
      "inputs": [],
      "name": "factory",
      "outputs": [
        {
          "internalType": "contract FFactory",
          "name": "",
          "type": "address"
        }
      ],
      "stateMutability": "view",
      "type": "function"
    },
    {
      "inputs": [
        {
          "internalType": "address",
          "name": "token",
          "type": "address"
        },
        {
          "internalType": "address",
          "name": "assetToken",
          "type": "address"
        }
      ],
      "name": "getMaxBuyInputAsset",
      "outputs": [
        {
          "internalType": "uint256",
          "name": "maxInput",
          "type": "uint256"
        }
      ],
      "stateMutability": "view",
      "type": "function"
    },
    {
      "inputs": [
        {
          "internalType": "address",
          "name": "token",
          "type": "address"
        }
      ],
      "name": "getMaxBuyInputSei",
      "outputs": [
        {
          "internalType": "uint256",
          "name": "maxInput",
          "type": "uint256"
        }
      ],
      "stateMutability": "view",
      "type": "function"
    },
    {
      "inputs": [],
      "name": "getMaxLaunchInputAsset",
      "outputs": [
        {
          "internalType": "uint256",
          "name": "maxInput",
          "type": "uint256"
        }
      ],
      "stateMutability": "view",
      "type": "function"
    },
    {
      "inputs": [],
      "name": "getMaxLaunchInputSei",
      "outputs": [
        {
          "internalType": "uint256",
          "name": "maxInput",
          "type": "uint256"
        }
      ],
      "stateMutability": "view",
      "type": "function"
    },
    {
      "inputs": [
        {
          "internalType": "address",
          "name": "account",
          "type": "address"
        }
      ],
      "name": "getUserTokens",
      "outputs": [
        {
          "internalType": "address[]",
          "name": "",
          "type": "address[]"
        }
      ],
      "stateMutability": "view",
      "type": "function"
    },
    {
      "inputs": [],
      "name": "initialSupply",
      "outputs": [
        {
          "internalType": "uint256",
          "name": "",
          "type": "uint256"
        }
      ],
      "stateMutability": "view",
      "type": "function"
    },
    {
      "inputs": [
        {
          "internalType": "address",
          "name": "factory_",
          "type": "address"
        },
        {
          "internalType": "address",
          "name": "router_",
          "type": "address"
        },
        {
          "internalType": "address payable",
          "name": "wsei_",
          "type": "address"
        },
        {
          "internalType": "uint256",
          "name": "assetLaunchFee_",
          "type": "uint256"
        },
        {
          "internalType": "uint256",
          "name": "seiLaunchFee_",
          "type": "uint256"
        },
        {
          "internalType": "uint256",
          "name": "initialSupply_",
          "type": "uint256"
        },
        {
          "internalType": "uint256",
          "name": "maxTx_",
          "type": "uint256"
        },
        {
          "internalType": "uint256",
          "name": "seiGradThreshold_",
          "type": "uint256"
        },
        {
          "internalType": "uint256",
          "name": "assetGradThreshold_",
          "type": "uint256"
        },
        {
          "internalType": "uint256",
          "name": "dragonswapTaxBps_",
          "type": "uint256"
        },
        {
          "internalType": "address",
          "name": "dragonswapFactory_",
          "type": "address"
        },
        {
          "internalType": "address",
          "name": "dragonswapRouter_",
          "type": "address"
        }
      ],
      "name": "initialize",
      "outputs": [],
      "stateMutability": "nonpayable",
      "type": "function"
    },
    {
      "inputs": [
        {
          "internalType": "string",
          "name": "_name",
          "type": "string"
        },
        {
          "internalType": "string",
          "name": "_ticker",
          "type": "string"
        },
        {
          "internalType": "uint256",
          "name": "purchaseAmount",
          "type": "uint256"
        },
        {
          "internalType": "address",
          "name": "assetToken",
          "type": "address"
        }
      ],
      "name": "launchWithAsset",
      "outputs": [
        {
          "internalType": "address",
          "name": "",
          "type": "address"
        },
        {
          "internalType": "address",
          "name": "",
          "type": "address"
        },
        {
          "internalType": "uint256",
          "name": "",
          "type": "uint256"
        }
      ],
      "stateMutability": "nonpayable",
      "type": "function"
    },
    {
      "inputs": [
        {
          "internalType": "string",
          "name": "_name",
          "type": "string"
        },
        {
          "internalType": "string",
          "name": "_ticker",
          "type": "string"
        }
      ],
      "name": "launchWithSei",
      "outputs": [
        {
          "internalType": "address",
          "name": "",
          "type": "address"
        },
        {
          "internalType": "address",
          "name": "",
          "type": "address"
        },
        {
          "internalType": "uint256",
          "name": "",
          "type": "uint256"
        }
      ],
      "stateMutability": "payable",
      "type": "function"
    },
    {
      "inputs": [],
      "name": "maxTx",
      "outputs": [
        {
          "internalType": "uint256",
          "name": "",
          "type": "uint256"
        }
      ],
      "stateMutability": "view",
      "type": "function"
    },
    {
      "inputs": [],
      "name": "owner",
      "outputs": [
        {
          "internalType": "address",
          "name": "",
          "type": "address"
        }
      ],
      "stateMutability": "view",
      "type": "function"
    },
    {
      "inputs": [
        {
          "internalType": "address",
          "name": "",
          "type": "address"
        }
      ],
      "name": "profile",
      "outputs": [
        {
          "internalType": "address",
          "name": "user",
          "type": "address"
        }
      ],
      "stateMutability": "view",
      "type": "function"
    },
    {
      "inputs": [
        {
          "internalType": "uint256",
          "name": "",
          "type": "uint256"
        }
      ],
      "name": "profiles",
      "outputs": [
        {
          "internalType": "address",
          "name": "",
          "type": "address"
        }
      ],
      "stateMutability": "view",
      "type": "function"
    },
    {
      "inputs": [],
      "name": "renounceOwnership",
      "outputs": [],
      "stateMutability": "nonpayable",
      "type": "function"
    },
    {
      "inputs": [],
      "name": "router",
      "outputs": [
        {
          "internalType": "contract FRouter",
          "name": "",
          "type": "address"
        }
      ],
      "stateMutability": "view",
      "type": "function"
    },
    {
      "inputs": [],
      "name": "seiGradThreshold",
      "outputs": [
        {
          "internalType": "uint256",
          "name": "",
          "type": "uint256"
        }
      ],
      "stateMutability": "view",
      "type": "function"
    },
    {
      "inputs": [],
      "name": "seiLaunchFee",
      "outputs": [
        {
          "internalType": "uint256",
          "name": "",
          "type": "uint256"
        }
      ],
      "stateMutability": "view",
      "type": "function"
    },
    {
      "inputs": [
        {
          "internalType": "uint256",
          "name": "amountIn",
          "type": "uint256"
        },
        {
          "internalType": "address",
          "name": "tokenAddress",
          "type": "address"
        },
        {
          "internalType": "address",
          "name": "assetToken",
          "type": "address"
        }
      ],
      "name": "sellForAsset",
      "outputs": [
        {
          "internalType": "uint256",
          "name": "amountReceived",
          "type": "uint256"
        }
      ],
      "stateMutability": "nonpayable",
      "type": "function"
    },
    {
      "inputs": [
        {
          "internalType": "uint256",
          "name": "amountIn",
          "type": "uint256"
        },
        {
          "internalType": "address",
          "name": "tokenAddress",
          "type": "address"
        }
      ],
      "name": "sellForSei",
      "outputs": [
        {
          "internalType": "bool",
          "name": "",
          "type": "bool"
        }
      ],
      "stateMutability": "nonpayable",
      "type": "function"
    },
    {
      "inputs": [
        {
          "internalType": "uint256",
          "name": "newThreshold",
          "type": "uint256"
        }
      ],
      "name": "setAssetGradThreshold",
      "outputs": [],
      "stateMutability": "nonpayable",
      "type": "function"
    },
    {
      "inputs": [
        {
          "internalType": "uint256",
          "name": "newFee",
          "type": "uint256"
        }
      ],
      "name": "setAssetLaunchFee",
      "outputs": [],
      "stateMutability": "nonpayable",
      "type": "function"
    },
    {
      "inputs": [
        {
          "components": [
            {
              "internalType": "bytes32",
              "name": "tbaSalt",
              "type": "bytes32"
            },
            {
              "internalType": "address",
              "name": "tbaImplementation",
              "type": "address"
            },
            {
              "internalType": "uint32",
              "name": "daoVotingPeriod",
              "type": "uint32"
            },
            {
              "internalType": "uint256",
              "name": "daoThreshold",
              "type": "uint256"
            }
          ],
          "internalType": "struct Bonding.DeployParams",
          "name": "params",
          "type": "tuple"
        }
      ],
      "name": "setDeployParams",
      "outputs": [],
      "stateMutability": "nonpayable",
      "type": "function"
    },
    {
      "inputs": [
        {
          "internalType": "uint256",
          "name": "newSupply",
          "type": "uint256"
        }
      ],
      "name": "setInitialSupply",
      "outputs": [],
      "stateMutability": "nonpayable",
      "type": "function"
    },
    {
      "inputs": [
        {
          "internalType": "uint256",
          "name": "maxTx_",
          "type": "uint256"
        }
      ],
      "name": "setMaxTx",
      "outputs": [],
      "stateMutability": "nonpayable",
      "type": "function"
    },
    {
      "inputs": [
        {
          "internalType": "uint256",
          "name": "newThreshold",
          "type": "uint256"
        }
      ],
      "name": "setSeiGradThreshold",
      "outputs": [],
      "stateMutability": "nonpayable",
      "type": "function"
    },
    {
      "inputs": [
        {
          "internalType": "uint256",
          "name": "newFee",
          "type": "uint256"
        }
      ],
      "name": "setSeiLaunchFee",
      "outputs": [],
      "stateMutability": "nonpayable",
      "type": "function"
    },
    {
      "inputs": [
        {
          "internalType": "address",
          "name": "",
          "type": "address"
        }
      ],
      "name": "tokenInfo",
      "outputs": [
        {
          "internalType": "address",
          "name": "creator",
          "type": "address"
        },
        {
          "internalType": "address",
          "name": "token",
          "type": "address"
        },
        {
          "internalType": "address",
          "name": "pair",
          "type": "address"
        },
        {
          "components": [
            {
              "internalType": "address",
              "name": "token",
              "type": "address"
            },
            {
              "internalType": "string",
              "name": "name",
              "type": "string"
            },
            {
              "internalType": "string",
              "name": "_name",
              "type": "string"
            },
            {
              "internalType": "string",
              "name": "ticker",
              "type": "string"
            },
            {
              "internalType": "uint256",
              "name": "supply",
              "type": "uint256"
            },
            {
              "internalType": "uint256",
              "name": "price",
              "type": "uint256"
            },
            {
              "internalType": "uint256",
              "name": "marketCap",
              "type": "uint256"
            },
            {
              "internalType": "uint256",
              "name": "liquidity",
              "type": "uint256"
            },
            {
              "internalType": "uint256",
              "name": "volume",
              "type": "uint256"
            },
            {
              "internalType": "uint256",
              "name": "volume24H",
              "type": "uint256"
            },
            {
              "internalType": "uint256",
              "name": "prevPrice",
              "type": "uint256"
            },
            {
              "internalType": "uint256",
              "name": "lastUpdated",
              "type": "uint256"
            }
          ],
          "internalType": "struct Bonding.Data",
          "name": "data",
          "type": "tuple"
        },
        {
          "internalType": "bool",
          "name": "trading",
          "type": "bool"
        },
        {
          "internalType": "bool",
          "name": "tradingOnDragonswap",
          "type": "bool"
        }
      ],
      "stateMutability": "view",
      "type": "function"
    },
    {
      "inputs": [
        {
          "internalType": "uint256",
          "name": "",
          "type": "uint256"
        }
      ],
      "name": "tokenInfos",
      "outputs": [
        {
          "internalType": "address",
          "name": "",
          "type": "address"
        }
      ],
      "stateMutability": "view",
      "type": "function"
    },
    {
      "inputs": [
        {
          "internalType": "address",
          "name": "newOwner",
          "type": "address"
        }
      ],
      "name": "transferOwnership",
      "outputs": [],
      "stateMutability": "nonpayable",
      "type": "function"
    },
    {
      "inputs": [],
      "name": "wsei",
      "outputs": [
        {
          "internalType": "contract WSEI",
          "name": "",
          "type": "address"
        }
      ],
      "stateMutability": "view",
      "type": "function"
    },
    {
      "stateMutability": "payable",
      "type": "receive"
    }
  ],
  "bytecode": "0x6080806040523460d2577ff0c57e16840df040f15088dc2f81fe391c3923bec73e23a9662efc9c229c6a005460ff8160401c1660c1576002600160401b03196001600160401b03821601605c575b60405161480b90816100d88239f35b6001600160401b0319166001600160401b039081177ff0c57e16840df040f15088dc2f81fe391c3923bec73e23a9662efc9c229c6a005581527fc7f505b2f371ae2175ee4913f4499e1f2633a7b5936321eed1cdaeb6115181d290602090a13880604d565b63f92ee8a960e01b60005260046000fd5b600080fdfe6080604052600436101561001b575b361561001957600080fd5b005b6000803560e01c8063017e037814611391578063055a2100146113735780630b8c5f44146113505780630e84eda814611323578063378dc3dc1461130557806338acc6a2146112e75780633f996307146111ce578063433a914114610f6e57806343fb4d2414610eab57806345bdd90b14610e25578063468be71314610e075780634b20efef14610de4578063519dc8d214610c935780635c18d8ab14610c755780636140259614610c52578063715018a614610be85780637437681e14610bca57806374c680b314610a3e5780637c13774b146109d15780638da5cb5b1461099b57806395e6ed3e14610813578063983c7a21146107f05780639dd9d0fd146107af578063ad0341fc146106b1578063adbc96e214610693578063bc33718214610670578063bdf9290714610566578063c36fe3d6146104e5578063c45a0155146104be578063c895471614610495578063d2abbab614610472578063e712436e1461044c578063f2fde38b1461041f578063f30952dd146103f6578063f5dab71114610212578063f887ea40146101e95763f9d0fe42146101be575061000e565b346101e657806003193601126101e6576002546040516001600160a01b039091168152602090f35b80fd5b50346101e657806003193601126101e6576001546040516001600160a01b039091168152602090f35b50346101e65760203660031901126101e6576040906001600160a01b036102376113c2565b1681526011602052208054600182015460028301546040516001600160a01b039283169493831693909260ff921690600f906102728561141f565b60038101546001600160a01b0316855261028e60048201611554565b602086015261029f60058201611554565b60408601526102b060068201611554565b606086015260078101546080860152600881015460a0860152600981015460c0860152600a81015460e0860152600b810154610100860152600c810154610120860152600d810154610140860152600e81015461016086015201549060405195869586526020860152604085015260c0606085015260018060a01b0383511660c085015261016061038661036f610358602087015161018060e08a015261024089019061161b565b604087015188820360bf19016101008a015261161b565b606086015187820360bf190161012089015261161b565b93608081015161014087015260a08101518287015260c081015161018087015260e08101516101a08701526101008101516101c08701526101208101516101e087015261014081015161020087015201516102208501528181161515608085015260081c16151560a08301520390f35b50346101e657806003193601126101e6576004546040516001600160a01b039091168152602090f35b50346101e65760203660031901126101e65761044961043c6113c2565b6104446119c7565b611951565b80f35b50346101e657806003193601126101e657602061046a6007546128ff565b604051908152f35b50346101e65760203660031901126101e65761048c6119c7565b60043560095580f35b50346101e657806003193601126101e6576003546040516001600160a01b039091168152602090f35b50346101e657806003193601126101e657546040516001600160a01b039091168152602090f35b50346101e65760203660031901126101e657600435906010548210156101e65760105482101561055257601081527f1b6847dc741a1b0cd08d278845f9d819d87b734759afb55fe2de5cb82a9ae6729091015460405160039290921b1c6001600160a01b03168152602090f35b634e487b7160e01b81526032600452602490fd5b5060403660031901126101e6576004356001600160401b03811161066c57610592903690600401611496565b906024356001600160401b03811161066c576105b2903690600401611496565b906105c1600754341015611885565b6002546001600160a01b0316803b1561066c578160049160405192838092630d0e30db60e41b825234905af180156106615761064c575b61064861062085856007549161060e83346118ee565b9160018060a01b036002541691612a6a565b604080516001600160a01b039485168152939092166020840152908201529081906060820190565b0390f35b61065782809261143b565b6101e657806105f8565b6040513d84823e3d90fd5b5080fd5b50346101e65760203660031901126101e65761068a6119c7565b600435600a5580f35b50346101e657806003193601126101e6576020600754604051908152f35b50346101e6576106c03661145c565b6040516370a0823160e01b815233600482015292936001600160a01b03821693919291602081602481885afa9182156107a357908692610769575b5010610724578361071560209561071a95309033906129c9565b611b20565b6040519015158152f35b60405162461bcd60e51b815260206004820152601860248201527f496e73756666696369656e7420617373657420746f6b656e00000000000000006044820152606490fd5b9150506020813d60201161079b575b816107856020938361143b565b8101031261079657849051386106fb565b600080fd5b3d9150610778565b604051903d90823e3d90fd5b50346101e65760203660031901126101e6576020906001600160a01b036107d46113c2565b168152600f8252604060018060a01b0391205416604051908152f35b50346101e65760203660031901126101e65761080a6119c7565b60043560065580f35b50346101e65760403660031901126101e6578061089c6004356108346113d8565b61083c61298d565b60208260018060a01b0383168087526011835261086260ff600f60408a20015416611911565b6001546040516303b6381560e11b81526001600160a01b039091166004820152602481019290925290948591908290889082906044820190565b03925af1928315610990576108c393610963575b506002546001600160a01b031691612516565b6002546001600160a01b0316803b1561095f57828091602460405180948193632e1a7d4d60e01b83528760048401525af190811561095457839161093c575b50808092818115610933575b3390f1156107a357600160008051602061479683398151915255602060405160018152f35b506108fc61090e565b816109469161143b565b610951578138610902565b50fd5b6040513d85823e3d90fd5b5050fd5b6109849060203d602011610989575b61097c818361143b565b81019061186d565b6108b0565b503d610972565b6040513d86823e3d90fd5b50346101e657806003193601126101e657600080516020614776833981519152546040516001600160a01b039091168152602090f35b50346101e65760203660031901126101e657600435906012548210156101e65760125482101561055257601281527fbb8a6a4669ba250d26cd7a459eca9d215f8307e33aebe50379bc5a3617ec34449091015460405160039290921b1c6001600160a01b03168152602090f35b50346101e65760803660031901126101e6576004356001600160401b03811161066c57610a6f903690600401611496565b6024356001600160401b038111610bc657610a8e903690600401611496565b60443591906064356001600160a01b03811691828203610bc257610ab061298d565b60065495610ac087871015611885565b6040516370a0823160e01b8152336004820152602081602481885afa9182156107a357908792610b8d575b5010610b5257610b0f85610b0561064898610b18986118ee565b94309033906129c9565b60065493612a6a565b600160008051602061479683398151915255604080516001600160a01b039485168152939092166020840152908201529081906060820190565b60405162461bcd60e51b8152602060048201526013602482015272125b9cdd59999a58da595b9d08185b5bdd5b9d606a1b6044820152606490fd5b9150506020813d602011610bba575b81610ba96020938361143b565b810103126107965785905138610aeb565b3d9150610b9c565b8580fd5b8280fd5b50346101e657806003193601126101e6576020600a54604051908152f35b50346101e657806003193601126101e657610c016119c7565b60008051602061477683398151915280546001600160a01b0319811690915581906001600160a01b03167f8be0079c531659141344cd1fd0a4f28419497f9722a3daafe3b4186f6b6457e08280a380f35b50346101e65760203660031901126101e657610c6c6119c7565b60043560055580f35b50346101e657806003193601126101e6576020600854604051908152f35b50346101e65760203660031901126101e657610cad6113c2565b6001600160a01b038082166000818152600f602052604090205490911603610d9f576001600160a01b03168152600f6020526040808220905190600190610cf3836113ee565b818060a01b0381541683520190604051908160208454918281520190819486526020862090865b818110610d805787868881602089610d34838b038461143b565b0152604051928392602084019060208552518091526040840192915b818110610d5e575050500390f35b82516001600160a01b0316845285945060209384019390920191600101610d50565b82546001600160a01b0316845260209093019260019283019201610d1a565b60405162461bcd60e51b815260206004820152601c60248201527f557365722050726f66696c6520646f7365206e6f742065786973742e000000006044820152606490fd5b50346101e65760203660031901126101e657610dfe6119c7565b60043560085580f35b50346101e657806003193601126101e657602061046a6006546128ff565b50346101e657610e343661145c565b6002549192916001600160a01b03828116911614610e585760209261046a92612516565b60405162461bcd60e51b815260206004820152602560248201527f43616c6c2073656c6c466f7253656920666f72206465616c696e672077697468604482015264207773656960d81b6064820152608490fd5b50346101e65760803660031901126101e657604051608081018181106001600160401b03821117610f5a576040526004358152610ee66113d8565b602082019081526044359063ffffffff82168203610f56576040830191825260608301926064358452610f176119c7565b51600c5551600d8054925163ffffffff60a01b60a09190911b166001600160a01b039092166001600160c01b03199093169290921717905551600e5580f35b8380fd5b634e487b7160e01b83526041600452602483fd5b50346101e6576101803660031901126101e657610f896113c2565b610f916113d8565b6044356001600160a01b03811690819003610f5657610144356001600160a01b03811691908290036111ca57610164356001600160a01b0381169390849003610bc2576000805160206147b6833981519152549460ff8660401c1615956001600160401b038116801590816111c2575b60011490816111b8575b1590816111af575b506111a05767ffffffffffffffff1981166001176000805160206147b68339815191525586611173575b50611046613327565b61104e613327565b600160008051602061479683398151915255611068613327565b611070613327565b61107933611951565b60018060a01b03166001600160601b0360a01b87541617865560018060a01b03166001600160601b0360a01b60015416176001556001600160601b0360a01b600254161760025560643560065560843560075560a43560055560c435600a5560e4356008556101043560095561012435600b556001600160601b0360a01b60035416176003556001600160601b0360a01b60045416176004556111195780f35b68ff0000000000000000196000805160206147b683398151915254166000805160206147b6833981519152557fc7f505b2f371ae2175ee4913f4499e1f2633a7b5936321eed1cdaeb6115181d2602060405160018152a180f35b68ffffffffffffffffff191668010000000000000001176000805160206147b6833981519152553861103d565b63f92ee8a960e01b8852600488fd5b90501538611013565b303b15915061100b565b889150611001565b8480fd5b5060203660031901126101e6576111e36113c2565b9034156112b2576002546001600160a01b0316803b1561066c578160049160405192838092630d0e30db60e41b825234905af18015610661576112a2575b5060025460015460405163095ea7b360e01b81526001600160a01b03918216600482015234602482015292939291602091839160449183918891165af18015610954579061071a929160209450611287575b506002546001600160a01b03169034611b20565b61129d90843d86116109895761097c818361143b565b611273565b816112ac9161143b565b38611221565b60405162461bcd60e51b815260206004820152600d60248201526c4d7573742073656e642053454960981b6044820152606490fd5b50346101e657806003193601126101e6576020600654604051908152f35b50346101e657806003193601126101e6576020600554604051908152f35b50346101e65760403660031901126101e657602061046a6113426113c2565b61134a6113d8565b9061165f565b50346101e65760203660031901126101e65761136a6119c7565b60043560075580f35b50346101e657806003193601126101e6576020600954604051908152f35b50346101e65760203660031901126101e657602061046a6113b06113c2565b6002546001600160a01b03169061165f565b600435906001600160a01b038216820361079657565b602435906001600160a01b038216820361079657565b604081019081106001600160401b0382111761140957604052565b634e487b7160e01b600052604160045260246000fd5b61018081019081106001600160401b0382111761140957604052565b90601f801991011681019081106001600160401b0382111761140957604052565b606090600319011261079657600435906024356001600160a01b038116810361079657906044356001600160a01b03811681036107965790565b81601f82011215610796578035906001600160401b03821161140957604051926114ca601f8401601f19166020018561143b565b8284526020838301011161079657816000926020809301838601378301015290565b80548210156115045760005260206000200190600090565b634e487b7160e01b600052603260045260246000fd5b90600182811c9216801561154a575b602083101461153457565b634e487b7160e01b600052602260045260246000fd5b91607f1691611529565b90604051918260008254926115688461151a565b80845293600181169081156115d6575060011461158f575b5061158d9250038361143b565b565b90506000929192526020600020906000915b8183106115ba57505090602061158d9282010138611580565b60209193508060019154838589010152019101909184926115a1565b90506020925061158d94915060ff191682840152151560051b82010138611580565b60005b83811061160b5750506000910152565b81810151838201526020016115fb565b90602091611634815180928185528580860191016115f8565b601f01601f1916010190565b9081602091031261079657516001600160a01b03811681036107965790565b60005460405163e6a4390560e01b81526001600160a01b0383811660048301529384166024820152919260209183916044918391165afa9081156117945760009161183e575b506040516318160ddd60e01b81526001600160a01b0391821692909116602082600481845afa91821561179457600092611809575b50602060049160405192838092633a1bb40f60e11b82525afa908115611794576000916117d7575b506040516316d3df1560e31b815290602082600481875afa918215611794576000926117a0575b5060206004946040519586809263b07925f160e01b82525afa9283156117945760009361175e575b61175b9450611a30565b90565b92506020843d60201161178c575b816117796020938361143b565b810103126107965761175b935192611751565b3d915061176c565b6040513d6000823e3d90fd5b9391506020843d6020116117cf575b816117bc6020938361143b565b8101031261079657925190926020611729565b3d91506117af565b90506020813d602011611801575b816117f26020938361143b565b81010312610796575138611702565b3d91506117e5565b9091506020813d602011611836575b816118256020938361143b565b8101031261079657519060206116da565b3d9150611818565b611860915060203d602011611866575b611858818361143b565b810190611640565b386116a5565b503d61184e565b90816020910312610796575180151581036107965790565b1561188c57565b60405162461bcd60e51b815260206004820152603460248201527f507572636861736520616d6f756e74206d7573742062652067726561746572206044820152737468616e206f7220657175616c20746f2066656560601b6064820152608490fd5b919082039182116118fb57565b634e487b7160e01b600052601160045260246000fd5b1561191857565b60405162461bcd60e51b8152602060048201526011602482015270546f6b656e206e6f742074726164696e6760781b6044820152606490fd5b6001600160a01b031680156119b15760008051602061477683398151915280546001600160a01b0319811683179091556001600160a01b03167f8be0079c531659141344cd1fd0a4f28419497f9722a3daafe3b4186f6b6457e0600080a3565b631e4fbdf760e01b600052600060045260246000fd5b600080516020614776833981519152546001600160a01b031633036119e857565b63118cdaa760e01b6000523360045260246000fd5b818102929181159184041417156118fb57565b8115611a1a570490565b634e487b7160e01b600052601260045260246000fd5b606491611a3f919493946119fd565b0490818311611ada5750505b600054604051634f7041a560e01b815290602090829060049082906001600160a01b03165afa90811561179457600091611aa8575b506064820291808304606414901517156118fb57606403606481116118fb5761175b91611a10565b90506020813d602011611ad2575b81611ac36020938361143b565b81010312610796575138611a80565b3d9150611ab6565b81611aec611af292611af895946119fd565b926118ee565b90611a10565b611a4b565b9190826040910312610796576020825192015190565b919082018092116118fb57565b60009260018060a01b038316928385526011602052611b4860ff600f60408820015416611911565b845460405163e6a4390560e01b81526001600160a01b0383811660048301528481166024830152909160209183916044918391165afa9081156121ae5786916124dc575b5060408051630240bc6b60e21b81526001600160a01b0392909216919081600481855afa90811561220f57879088926124ba575b5060015460405163095ea7b360e01b81526001600160a01b039182166004820152602481018a905290861696906020816044818d8c5af180156124925761249d575b5060015460405163095ea7b360e01b81526001600160a01b039091166004820152602481018290526020816044818d8c5af18015612492578a9392604092611c9392612475575b506001548351635fffb0d960e11b815260048101929092526001600160a01b0389811660248401528a81166044840152336064840152919586939190921691839182906084820190565b03925af19081156122e85789928a92612447575b50611cb6611cbc9284926118ee565b93611b13565b8789526011602052611cd5600e60408b200154426118ee565b928160011b9180830460021481151715612433579289928260096040620151808f999880611d22611d8999611d1d611d28948f888f91600792815260116020522001546119fd565b611a10565b95611a10565b98119889156124155785975b8a1561240057808252601160205260088383200154995b818352601160205260088484200155815260116020522001558a8c526011602052600a60408d200155898b526011602052600b60408c200154611b13565b888a526011602052600b60408b2001558789526011602052600c60408a2001558688526011602052600d6040892001556123ea575b6002546001600160a01b031684036123dd5760046020600854925b60405163c66f245560e01b815292839182905afa90811561220f5787916123a7575b5010158061238e575b611e13575b5050505050600190565b83855260116020526040852092600f8401805460ff811680612380575b156123475761ffff19166101001790556001546040805163acf7f11360e01b81526001600160a01b0385811660048301528681166024830152909392849116818a816044810103925af193841561220f5787928895612310575b506004805460405163095ea7b360e01b81526001600160a01b0390911691810191909152602481018490526020816044818c8c5af180156122e8576122f3575b506004805460405163095ea7b360e01b81526001600160a01b0390911691810191909152602481018690526020816044818c875af180156122e8576122cb575b506002546001600160a01b0316820361221a575050600480546040516309bf4f4160e31b81529160209183919082906001600160a01b03165afa90811561220f5787916121f0575b506002549093906001600160a01b0316803b156121ec57878091602460405180948193632e1a7d4d60e01b83528760048401525af180156121e1576121cd575b506004546001600160a01b031691426102588101929083106121b9576060929160c4916040519586948593630c7177af60e01b85528c600486015260248501528c60448501528c606485015230608485015260a48401525af180156121ae579161203d94939160209361217f575b505b60035460405163e6a4390560e01b81526001600160a01b03928316600482015292821660248401529194859290911690829081906044820190565b03915afa91821561099057849261215b575b5060020180546001600160a01b0319166001600160a01b03838116919091179091558354604051630e2ad37b60e41b81529160209183916004918391165afa90811561099057849161213c575b50600b5490833b156111ca576040516367c3a94f60e01b81526001600160a01b0384811660048301529190911660248201526044810191909152838160648183875af1801561099057908491612127575b50506001600160a01b0316917f381d54fa425631e6266af114239150fae1d5db67bb65b4fa9ecc65013107e07e9080a33880808080611e09565b816121319161143b565b610bc65782386120ed565b612155915060203d60201161186657611858818361143b565b3861209c565b60029192506121789060203d60201161186657611858818361143b565b919061204f565b6121a09060603d6060116121a7575b612198818361143b565b8101906124fb565b5050612000565b503d61218e565b6040513d88823e3d90fd5b634e487b7160e01b89526011600452602489fd5b876121da9198929861143b565b9538611f92565b6040513d8a823e3d90fd5b8780fd5b612209915060203d60201161186657611858818361143b565b38611f52565b6040513d89823e3d90fd5b9360018060a01b0360045416906102584201908142116122b7578960609493610104938b93604051988997889662e8e33760e81b885260048801526024870152604486015260648501528260848501528260a48501523060c485015260e48401525af180156121ae579161203d949391602093612298575b50612002565b6122b09060603d6060116121a757612198818361143b565b5050612292565b634e487b7160e01b8a52601160045260248afd5b6122e39060203d6020116109895761097c818361143b565b611f0a565b6040513d8b823e3d90fd5b61230b9060203d6020116109895761097c818361143b565b611eca565b90945061233691925060403d604011612340575b61232e818361143b565b810190611afd565b9190919338611e8a565b503d612324565b60405162461bcd60e51b8152602060048201526011602482015270105b1c9958591e4819dc98591d585d1959607a1b6044820152606490fd5b5060ff8160081c1615611e30565b50838552601160205260ff600f60408720015416611e04565b90506020813d6020116123d5575b816123c26020938361143b565b810103126123d1575138611dfb565b8680fd5b3d91506123b5565b6004602060095492611dd9565b848652601160205242600e604088200155611dbe565b8082526011602052600d838320015499611d4b565b878152601160205261242d86600c8484200154611b13565b97611d34565b634e487b7160e01b8b52601160045260248bfd5b611cb6919350611cbc925061246a9060403d6040116123405761232e818361143b565b909390925090611ca7565b61248d9060203d6020116109895761097c818361143b565b611c49565b6040513d8c823e3d90fd5b6124b59060203d6020116109895761097c818361143b565b611c02565b90506124d5915060403d6040116123405761232e818361143b565b9038611bc0565b6124f5915060203d60201161186657611858818361143b565b38611b8c565b90816060910312610796578051916040602083015192015190565b919060018060a01b0381169182600052601160205261253f60ff600f6040600020015416611911565b60005460405163e6a4390560e01b81526001600160a01b038481166004830152838116602483015290959160209187916044918391165afa948515611794576004956040916000916128e0575b508151630240bc6b60e21b815296879182906001600160a01b03165afa918215611794576000956000936128b9575b506040516323b872dd60e01b81523360048201523060248201526044810183905260208160648160008a5af180156117945761289c575b5060018060a01b0360015416916040519263095ea7b360e01b845260048401526000602484015260208360448160008a5af19283156117945761266b9361287f575b5060015460405163095ea7b360e01b81526001600160a01b0390911660048201526024810182905292602090849081906044820190565b038160008a5af192831561179457606093612862575b506002546001600160a01b0383811691160361285b5730945b600154604051637c9f83b760e01b815260048101939093526001600160a01b039182166024840152928116604483015294851660648201529384916084918391600091165af19384156117945760009060009360009661282b575b50611aec612704928592611b13565b90836000526011602052612720600e60406000200154426118ee565b918060011b93818504600214821517156118fb576201518061275e6127b393886000526011602052611d2286611d1d836007604060002001546119fd565b941194851561280a5781935b86156127f257876000526011602052600860406000200154955b600089815260116020526040902060088101919091556009810191909155600a810191909155600b0154611b13565b6000858152601160205260409020600b810191909155600c810191909155600d01556127dd575090565b600052601160205242600e6040600020015590565b876000526011602052600d6040600020015495612784565b86600052601160205261282582600c60406000200154611b13565b9361276a565b61284f919650611aec9450612704925060603d6060116121a757612198818361143b565b969094919250906126f5565b339461269a565b61287a9060203d6020116109895761097c818361143b565b612681565b6128979060203d6020116109895761097c818361143b565b612634565b6128b49060203d6020116109895761097c818361143b565b6125f2565b9092506128d691955060403d6040116123405761232e818361143b565b94909491386125bb565b6128f9915060203d60201161186657611858818361143b565b3861258c565b600054604051630d9f6b9160e11b81529190602090839060049082906001600160a01b03165afa91821561179457600092612957575b506129526129468261175b946119fd565b600554600a5481611a30565b611b13565b91506020823d602011612985575b816129726020938361143b565b8101031261079657905190612952612935565b3d9150612965565b600260008051602061479683398151915254146129b857600260008051602061479683398151915255565b633ee5aeb560e01b60005260046000fd5b6040516323b872dd60e01b60208201526001600160a01b03928316602482015292909116604483015260648083019390935291815261158d91612a0d60848361143b565b613355565b818110612a1d575050565b60008155600101612a12565b8054600160401b81101561140957612a46916001820181556114ec565b81546001600160a01b0393841660039290921b91821b9390911b1916919091179055565b919492909394600554600a54604051916112fd91828401928484106001600160401b03851117611409578493606091613479863960808152612ac0612ab2608083018b61161b565b82810360208401528c61161b565b936040820152015203906000f08015611794576040516318160ddd60e01b8152956001600160a01b03919091169390602087600481885afa968715611794576000976132f3575b50600080546040516364e329cb60e11b81526001600160a01b0388811660048301528681166024830152909a926020928c9260449284929091165af1988915611794576000996132d2575b50600154612b6b9089906001600160a01b0316886133b0565b60015488906040906001600160a01b0387811691612b959116612b8e868b611b13565b90836133b0565b608489600060018060a01b036001541685519687958694632530088360e01b86526004860152602485015260448401528760648401525af18015611794576132b4575b506040519765030b4b232b7160d51b60208a0152612c1560268a8651612c048184840160208b016115f8565b81010301601f1981018b528a61143b565b612c1f8282611a10565b908260011b93838504600214841517156118fb57612c3d8483611a10565b956040519b612c4b8d61141f565b8a8d5260208d015260408c015260608b015260808a015260a089015260c088015260e0870152600061010087015260006101208701526101408601524261016086015260405160c081018181106001600160401b0382111761140957604090815233825260208083018681526001600160a01b038a8116858501818152606087019b8c52600160808801818152600060a08a018181528d825260118952989020985189549086166001600160a01b0319918216178a55955191890180549286169287169290921790915590516002880180549185169186169190911790559a518051600388018054919094169416939093179091559181015180519299949260048401916001600160401b038211611409578190612d69845461151a565b601f8111613282575b50602090601f831160011461321d57600092613212575b50508160011b916000199060031b1c19161790555b6005820160408201518051906001600160401b038211611409578190612dc4845461151a565b601f81116131e0575b50602090601f831160011461317b57600092613170575b50508160011b916000199060031b1c19161790555b6006820160608201518051906001600160401b03821161140957612e1d835461151a565b601f8111613133575b50602090601f83116001146130c45791806101609492600f9796946000926130b9575b50508160011b916000199060031b1c19161790555b6080810151600784015560a0810151600884015560c0810151600984015560e0810151600a840155610100810151600b840155610120810151600c840155610140810151600d8401550151600e820155019151151560ff8019845416911617825551151561ff0082549160081b169061ff001916179055601254600160401b81101561140957806001612ef6920160125560126114ec565b81546001600160a01b0360039290921b82811b199091169086901b17909155336000818152600f602052604090205490911603612f975733600052600f602052612f47836001604060002001612a29565b60125494837f714aa39317ad9a7a7a99db52b44490da5d068a0b2710fffb1a1282ad3cadae1f6020604051898152a38282612f85575b505050929190565b612f8e92611b20565b50388082612f7d565b604051612fa3816113ee565b33808252606060208084019182526000928352600f90526040909120915182546001600160a01b0319166001600160a01b039190911617825551805191600101906001600160401b03831161140957600160401b831161140957602090825484845580851061309c575b500190600052602060002060005b83811061307f5750505050601054600160401b81101561140957806001613047920160105560106114ec565b81549060031b9033821b9160018060a01b03901b191617905533600052600f60205261307a836001604060002001612a29565b612f47565b82516001600160a01b03168183015560209092019160010161301b565b6130b3908460005285846000209182019101612a12565b3861300d565b015190503880612e49565b90601f1983169184600052816000209260005b81811061311b5750926001928592600f999896610160989610613102575b505050811b019055612e5e565b015160001960f88460031b161c191690553880806130f5565b929360206001819287860151815501950193016130d7565b61316090846000526020600020601f850160051c81019160208610613166575b601f0160051c0190612a12565b38612e26565b9091508190613153565b015190503880612de4565b60008581528281209350601f198516905b8181106131c857509084600195949392106131af575b505050811b019055612df9565b015160001960f88460031b161c191690553880806131a2565b9293602060018192878601518155019501930161318c565b61320c90856000526020600020601f850160051c8101916020861061316657601f0160051c0190612a12565b38612dcd565b015190503880612d89565b60008581528281209350601f198516905b81811061326a5750908460019594939210613251575b505050811b019055612d9e565b015160001960f88460031b161c19169055388080613244565b9293602060018192878601518155019501930161322e565b6132ae90856000526020600020601f850160051c8101916020861061316657601f0160051c0190612a12565b38612d72565b6132cc9060403d6040116123405761232e818361143b565b50612bd8565b6132ec91995060203d60201161186657611858818361143b565b9738612b52565b90966020823d60201161331f575b8161330e6020938361143b565b810103126101e65750519538612b07565b3d9150613301565b60ff6000805160206147b68339815191525460401c161561334457565b631afcd79f60e31b60005260046000fd5b906000602091828151910182855af115611794576000513d6133a757506001600160a01b0381163b155b6133865750565b635274afe760e01b60009081526001600160a01b0391909116600452602490fd5b6001141561337f565b60405163095ea7b360e01b60208083019182526001600160a01b0385166024840152604480840196909652948252929390926000906133f060648661143b565b84519082855af16000513d82613453575b50501561340d57505050565b60405163095ea7b360e01b60208201526001600160a01b0390931660248401526000604480850191909152835261158d92612a0d9061344d60648261143b565b82613355565b90915061347057506001600160a01b0381163b15155b3880613401565b60011461346956fe608060405234610493576112fd8038038061001981610498565b9283398101906080818303126104935780516001600160401b03811161049357826100459183016104bd565b602082015190926001600160401b038211610493576100659183016104bd565b60408201516060909201518351919290916001600160401b03811161039c57600354600181811c91168015610489575b602082101461037c57601f8111610424575b50602094601f82116001146103bd579481929394956000926103b2575b50508160011b916000199060031b1c1916176003555b82516001600160401b03811161039c57600454600181811c91168015610392575b602082101461037c57601f8111610317575b506020601f82116001146102b057819293946000926102a5575b50508160011b916000199060031b1c1916176004555b331561028f5760058054336001600160a01b0319821681179092556001600160a01b03167f8be0079c531659141344cd1fd0a4f28419497f9722a3daafe3b4186f6b6457e0600080a3600060025482810180911161027b5760025550336000526000602052604060002081815401905560405190815260007fddf252ad1be2c89b69c2b068fc378daa952ba7f163c4a11628f55a4df523b3ef60203393a33360005260086020526040600020600160ff198254161790553060005260086020526040600020600160ff1982541617905580600655600254808202908282041482151715610265577fff3dd5e80294197918c284bbfc3dadd97d0b40ce92106110946329088f80068a91606460209204600755604051908152a1604051610dd490816105298239f35b634e487b7160e01b600052601160045260246000fd5b634e487b7160e01b82526011600452602482fd5b631e4fbdf760e01b600052600060045260246000fd5b015190503880610127565b601f198216906004600052806000209160005b8181106102ff575095836001959697106102e6575b505050811b0160045561013d565b015160001960f88460031b161c191690553880806102d8565b9192602060018192868b0151815501940192016102c3565b60046000527f8a35acfbc15ff81a39ae7d344fd709f28e8600b4aa8c65c6b64bfe7fe36bd19b601f830160051c81019160208410610372575b601f0160051c01905b818110610366575061010d565b60008155600101610359565b9091508190610350565b634e487b7160e01b600052602260045260246000fd5b90607f16906100fb565b634e487b7160e01b600052604160045260246000fd5b0151905038806100c4565b601f198216956003600052806000209160005b88811061040c575083600195969798106103f3575b505050811b016003556100da565b015160001960f88460031b161c191690553880806103e5565b919260206001819286850151815501940192016103d0565b60036000527fc2575a0e9e593c00f959f8c92f12db2869c3395a3b0502d05e2516446f71f85b601f830160051c8101916020841061047f575b601f0160051c01905b81811061047357506100a7565b60008155600101610466565b909150819061045d565b90607f1690610095565b600080fd5b6040519190601f01601f191682016001600160401b0381118382101761039c57604052565b81601f82011215610493578051906001600160401b03821161039c576104ec601f8301601f1916602001610498565b92828452602083830101116104935760005b82811061051357505060206000918301015290565b806020809284010151828287010152016104fe56fe608080604052600436101561001357600080fd5b60003560e01c90816306fdde031461085e57508063076c702a146107ab578063095ea7b31461078557806318160ddd1461076757806323b872dd1461073b578063313ce5671461071f57806342966c6814610702578063434f07c8146106d957806367c3a94f146105b257806370a0823114610578578063715018a61461051b5780637437681e146104fd57806379cc6790146104cb5780637a210a2b146104ad5780638da5cb5b1461048457806395d89b4114610363578063a9059cbb14610328578063c2d0ffca146102ca578063db4cf1e01461022a578063dd62ed3e146101c9578063e6ef73d6146101a05763f2fde38b1461011157600080fd5b3461019b57602036600319011261019b5761012a61097a565b610132610c5f565b6001600160a01b0316801561018557600580546001600160a01b0319811683179091556001600160a01b03167f8be0079c531659141344cd1fd0a4f28419497f9722a3daafe3b4186f6b6457e0600080a3005b631e4fbdf760e01b600052600060045260246000fd5b600080fd5b3461019b57600036600319011261019b57600a546040516001600160a01b039091168152602090f35b3461019b57604036600319011261019b576101e261097a565b602435906001600160a01b038216820361019b5760018060a01b0316600052600160205260406000209060018060a01b03166000526020526020604060002054604051908152f35b3461019b57602036600319011261019b5761024361097a565b61024b610c5f565b6001600160a01b03168015610275576000908152600860205260409020805460ff19166001179055005b60405162461bcd60e51b815260206004820152602760248201527f45524332303a204578636c756465204d61782054782066726f6d207a65726f206044820152666164647265737360c81b6064820152608490fd5b3461019b57602036600319011261019b577fff3dd5e80294197918c284bbfc3dadd97d0b40ce92106110946329088f80068a6020600435610309610c5f565b80600655606461031b60025483610ad7565b04600755604051908152a1005b3461019b57604036600319011261019b5761035861034461097a565b6024359061035282336109ca565b33610b00565b602060405160018152f35b3461019b57600036600319011261019b5760405160006004548060011c9060018116801561047a575b6020831081146104665782855290811561044a57506001146103f3575b50819003601f01601f191681019067ffffffffffffffff8211818310176103dd576103d982918260405282610931565b0390f35b634e487b7160e01b600052604160045260246000fd5b905060046000527f8a35acfbc15ff81a39ae7d344fd709f28e8600b4aa8c65c6b64bfe7fe36bd19b6000905b828210610434575060209150820101826103a9565b600181602092548385880101520191019061041f565b90506020925060ff191682840152151560051b820101826103a9565b634e487b7160e01b84526022600452602484fd5b91607f169161038c565b3461019b57600036600319011261019b576005546040516001600160a01b039091168152602090f35b3461019b57600036600319011261019b576020600b54604051908152f35b3461019b57604036600319011261019b576104fb6104e761097a565b602435906104f6823383610a2c565b610bc8565b005b3461019b57600036600319011261019b576020600654604051908152f35b3461019b57600036600319011261019b57610534610c5f565b600580546001600160a01b031981169091556000906001600160a01b03167f8be0079c531659141344cd1fd0a4f28419497f9722a3daafe3b4186f6b6457e08280a3005b3461019b57602036600319011261019b576001600160a01b0361059961097a565b1660005260006020526020604060002054604051908152f35b3461019b576105c036610990565b91906105ca610c5f565b6001600160a01b03168015610694576103e88311610659577f3a1c4d768fe375c9e4467acb35731da4310b5b90cbd7fb42706bf8bbf68f5b429260609260018060a01b031691826bffffffffffffffffffffffff60a01b6009541617600955806bffffffffffffffffffffffff60a01b600a541617600a5581600b5560405192835260208301526040820152a1005b60405162461bcd60e51b815260206004820152601360248201527208aa48664607440e8c2f040e8dede40d0d2ced606b1b6044820152606490fd5b60405162461bcd60e51b815260206004820152601760248201527f45524332303a207a65726f2074617820616464726573730000000000000000006044820152606490fd5b3461019b57600036600319011261019b576009546040516001600160a01b039091168152602090f35b3461019b57602036600319011261019b576104fb60043533610bc8565b3461019b57600036600319011261019b57602060405160128152f35b3461019b5761035861074c36610990565b9161075783826109ca565b610762833383610a2c565b610b00565b3461019b57600036600319011261019b576020600254604051908152f35b3461019b57604036600319011261019b576103586107a161097a565b6024359033610c88565b3461019b57604036600319011261019b576107c461097a565b3315610848576001600160a01b038116908115610832576103589133600052600160205260406000208160005260205260006040812055604051600081527f8c5be1e5ebec7d5bd14f71427d1e84f3dd0314c0f7b2291e5b200ac8c7c3b92560203392a36024359033610c88565b634a1406b160e11b600052600060045260246000fd5b63e602df0560e01b600052600060045260246000fd5b3461019b57600036600319011261019b5760006003548060011c90600181168015610927575b6020831081146104665782855290811561044a57506001146108d05750819003601f01601f191681019067ffffffffffffffff8211818310176103dd576103d982918260405282610931565b905060036000527fc2575a0e9e593c00f959f8c92f12db2869c3395a3b0502d05e2516446f71f85b6000905b828210610911575060209150820101826103a9565b60018160209254838588010152019101906108fc565b91607f1691610884565b91909160208152825180602083015260005b818110610964575060409293506000838284010152601f8019910116010190565b8060208092870101516040828601015201610943565b600435906001600160a01b038216820361019b57565b606090600319011261019b576004356001600160a01b038116810361019b57906024356001600160a01b038116810361019b579060443590565b6001600160a01b031660009081526008602052604090205460ff16156109ed5750565b600754106109f757565b60405162461bcd60e51b815260206004820152600d60248201526c08af0c6cacac8e6409ac2f0a8f609b1b6044820152606490fd5b6001600160a01b039081166000818152600160209081526040808320948616835293905291909120549291906000198410610a68575b50505050565b828410610ab2578015610848576001600160a01b0382161561083257600052600160205260406000209060018060a01b031660005260205260406000209103905538808080610a62565b508290637dc7a0d960e11b60005260018060a01b031660045260245260445260646000fd5b81810292918115918404141715610aea57565b634e487b7160e01b600052601160045260246000fd5b9190600b54151580610b93575b80610b7b575b80610b63575b15610b5a57612710610b2d600b5484610ad7565b0492838303928311610aea57600a54610b5894610b53916001600160a01b031683610cef565b610cef565b565b610b5892610cef565b50600a546001600160a01b0382811691161415610b19565b50600a546001600160a01b0384811691161415610b13565b506009546001600160a01b038481169116908114908115610bb5575b50610b0d565b6001600160a01b03831614905038610baf565b6001600160a01b03168015610c4957600091818352826020526040832054818110610c3057817fddf252ad1be2c89b69c2b068fc378daa952ba7f163c4a11628f55a4df523b3ef926020928587528684520360408620558060025403600255604051908152a3565b6064939263391434e360e21b8452600452602452604452fd5b634b637e8f60e11b600052600060045260246000fd5b6005546001600160a01b03163303610c7357565b63118cdaa760e01b6000523360045260246000fd5b6001600160a01b0316908115610848576001600160a01b03169182156108325760207f8c5be1e5ebec7d5bd14f71427d1e84f3dd0314c0f7b2291e5b200ac8c7c3b925918360005260018252604060002085600052825280604060002055604051908152a3565b6001600160a01b0316908115610c49576001600160a01b0316918215610d88576000828152806020526040812054828110610d6e5791604082827fddf252ad1be2c89b69c2b068fc378daa952ba7f163c4a11628f55a4df523b3ef958760209652828652038282205586815280845220818154019055604051908152a3565b916064928463391434e360e21b8452600452602452604452fd5b63ec442f0560e01b600052600060045260246000fdfea2646970667358221220cf83898e82b5ad17903edd641ea13f8bac99d1b217fa8715221699feed48e10b64736f6c634300081c00339016d09d72d40fdae2fd8ceac6b6234c7706214fd39c1cd1e609a0528c1993009b779b17422d0df92223018b32b4d1fa46e071723d6817e2486d003becc55f00f0c57e16840df040f15088dc2f81fe391c3923bec73e23a9662efc9c229c6a00a26469706673582212201ab16721417631dc7db0776eaac5bc9272d16afb0178c9e2dcd162f1d8469ea564736f6c634300081c0033",
  "linkReferences": {},
  "deployedLinkReferences": {}
}