{
  "_format": "hh-sol-artifact-1",
  "contractName": "FERC20",
  "sourceName": "contracts/FERC20.sol",
  "abi": [
    {
      "inputs": [
        {
          "internalType": "string",
          "name": "name_",
          "type": "string"
        },
        {
          "internalType": "string",
          "name": "symbol_",
          "type": "string"
        },
        {
          "internalType": "uint256",
          "name": "supply",
          "type": "uint256"
        },
        {
          "internalType": "uint256",
          "name": "_maxTx",
          "type": "uint256"
        }
      ],
      "stateMutability": "nonpayable",
      "type": "constructor"
    },
    {
      "inputs": [
        {
          "internalType": "address",
          "name": "spender",
          "type": "address"
        },
        {
          "internalType": "uint256",
          "name": "allowance",
          "type": "uint256"
        },
        {
          "internalType": "uint256",
          "name": "needed",
          "type": "uint256"
        }
      ],
      "name": "ERC20InsufficientAllowance",
      "type": "error"
    },
    {
      "inputs": [
        {
          "internalType": "address",
          "name": "sender",
          "type": "address"
        },
        {
          "internalType": "uint256",
          "name": "balance",
          "type": "uint256"
        },
        {
          "internalType": "uint256",
          "name": "needed",
          "type": "uint256"
        }
      ],
      "name": "ERC20InsufficientBalance",
      "type": "error"
    },
    {
      "inputs": [
        {
          "internalType": "address",
          "name": "approver",
          "type": "address"
        }
      ],
      "name": "ERC20InvalidApprover",
      "type": "error"
    },
    {
      "inputs": [
        {
          "internalType": "address",
          "name": "receiver",
          "type": "address"
        }
      ],
      "name": "ERC20InvalidReceiver",
      "type": "error"
    },
    {
      "inputs": [
        {
          "internalType": "address",
          "name": "sender",
          "type": "address"
        }
      ],
      "name": "ERC20InvalidSender",
      "type": "error"
    },
    {
      "inputs": [
        {
          "internalType": "address",
          "name": "spender",
          "type": "address"
        }
      ],
      "name": "ERC20InvalidSpender",
      "type": "error"
    },
    {
      "inputs": [
        {
          "internalType": "address",
          "name": "owner",
          "type": "address"
        }
      ],
      "name": "OwnableInvalidOwner",
      "type": "error"
    },
    {
      "inputs": [
        {
          "internalType": "address",
          "name": "account",
          "type": "address"
        }
      ],
      "name": "OwnableUnauthorizedAccount",
      "type": "error"
    },
    {
      "anonymous": false,
      "inputs": [
        {
          "indexed": true,
          "internalType": "address",
          "name": "owner",
          "type": "address"
        },
        {
          "indexed": true,
          "internalType": "address",
          "name": "spender",
          "type": "address"
        },
        {
          "indexed": false,
          "internalType": "uint256",
          "name": "value",
          "type": "uint256"
        }
      ],
      "name": "Approval",
      "type": "event"
    },
    {
      "anonymous": false,
      "inputs": [
        {
          "indexed": false,
          "internalType": "uint256",
          "name": "_maxTx",
          "type": "uint256"
        }
      ],
      "name": "MaxTxUpdated",
      "type": "event"
    },
    {
      "anonymous": false,
      "inputs": [
        {
          "indexed": true,
          "internalType": "address",
          "name": "previousOwner",
          "type": "address"
        },
        {
          "indexed": true,
          "internalType": "address",
          "name": "newOwner",
          "type": "address"
        }
      ],
      "name": "OwnershipTransferred",
      "type": "event"
    },
    {
      "anonymous": false,
      "inputs": [
        {
          "indexed": false,
          "internalType": "address",
          "name": "pool",
          "type": "address"
        },
        {
          "indexed": false,
          "internalType": "address",
          "name": "receiver",
          "type": "address"
        },
        {
          "indexed": false,
          "internalType": "uint256",
          "name": "bps",
          "type": "uint256"
        }
      ],
      "name": "TaxSettingsUpdated",
      "type": "event"
    },
    {
      "anonymous": false,
      "inputs": [
        {
          "indexed": true,
          "internalType": "address",
          "name": "from",
          "type": "address"
        },
        {
          "indexed": true,
          "internalType": "address",
          "name": "to",
          "type": "address"
        },
        {
          "indexed": false,
          "internalType": "uint256",
          "name": "value",
          "type": "uint256"
        }
      ],
      "name": "Transfer",
      "type": "event"
    },
    {
      "inputs": [
        {
          "internalType": "address",
          "name": "owner",
          "type": "address"
        },
        {
          "internalType": "address",
          "name": "spender",
          "type": "address"
        }
      ],
      "name": "allowance",
      "outputs": [
        {
          "internalType": "uint256",
          "name": "",
          "type": "uint256"
        }
      ],
      "stateMutability": "view",
      "type": "function"
    },
    {
      "inputs": [
        {
          "internalType": "address",
          "name": "spender",
          "type": "address"
        },
        {
          "internalType": "uint256",
          "name": "value",
          "type": "uint256"
        }
      ],
      "name": "approve",
      "outputs": [
        {
          "internalType": "bool",
          "name": "",
          "type": "bool"
        }
      ],
      "stateMutability": "nonpayable",
      "type": "function"
    },
    {
      "inputs": [
        {
          "internalType": "address",
          "name": "account",
          "type": "address"
        }
      ],
      "name": "balanceOf",
      "outputs": [
        {
          "internalType": "uint256",
          "name": "",
          "type": "uint256"
        }
      ],
      "stateMutability": "view",
      "type": "function"
    },
    {
      "inputs": [
        {
          "internalType": "uint256",
          "name": "value",
          "type": "uint256"
        }
      ],
      "name": "burn",
      "outputs": [],
      "stateMutability": "nonpayable",
      "type": "function"
    },
    {
      "inputs": [
        {
          "internalType": "address",
          "name": "account",
          "type": "address"
        },
        {
          "internalType": "uint256",
          "name": "value",
          "type": "uint256"
        }
      ],
      "name": "burnFrom",
      "outputs": [],
      "stateMutability": "nonpayable",
      "type": "function"
    },
    {
      "inputs": [],
      "name": "decimals",
      "outputs": [
        {
          "internalType": "uint8",
          "name": "",
          "type": "uint8"
        }
      ],
      "stateMutability": "view",
      "type": "function"
    },
    {
      "inputs": [],
      "name": "dragonSwapPool",
      "outputs": [
        {
          "internalType": "address",
          "name": "",
          "type": "address"
        }
      ],
      "stateMutability": "view",
      "type": "function"
    },
    {
      "inputs": [
        {
          "internalType": "address",
          "name": "user",
          "type": "address"
        }
      ],
      "name": "excludeFromMaxTx",
      "outputs": [],
      "stateMutability": "nonpayable",
      "type": "function"
    },
    {
      "inputs": [
        {
          "internalType": "address",
          "name": "spender",
          "type": "address"
        },
        {
          "internalType": "uint256",
          "name": "amount",
          "type": "uint256"
        }
      ],
      "name": "forceApprove",
      "outputs": [
        {
          "internalType": "bool",
          "name": "",
          "type": "bool"
        }
      ],
      "stateMutability": "nonpayable",
      "type": "function"
    },
    {
      "inputs": [],
      "name": "maxTx",
      "outputs": [
        {
          "internalType": "uint256",
          "name": "",
          "type": "uint256"
        }
      ],
      "stateMutability": "view",
      "type": "function"
    },
    {
      "inputs": [],
      "name": "name",
      "outputs": [
        {
          "internalType": "string",
          "name": "",
          "type": "string"
        }
      ],
      "stateMutability": "view",
      "type": "function"
    },
    {
      "inputs": [],
      "name": "owner",
      "outputs": [
        {
          "internalType": "address",
          "name": "",
          "type": "address"
        }
      ],
      "stateMutability": "view",
      "type": "function"
    },
    {
      "inputs": [],
      "name": "renounceOwnership",
      "outputs": [],
      "stateMutability": "nonpayable",
      "type": "function"
    },
    {
      "inputs": [],
      "name": "symbol",
      "outputs": [
        {
          "internalType": "string",
          "name": "",
          "type": "string"
        }
      ],
      "stateMutability": "view",
      "type": "function"
    },
    {
      "inputs": [],
      "name": "taxBasisPoints",
      "outputs": [
        {
          "internalType": "uint256",
          "name": "",
          "type": "uint256"
        }
      ],
      "stateMutability": "view",
      "type": "function"
    },
    {
      "inputs": [],
      "name": "taxReceiver",
      "outputs": [
        {
          "internalType": "address",
          "name": "",
          "type": "address"
        }
      ],
      "stateMutability": "view",
      "type": "function"
    },
    {
      "inputs": [],
      "name": "totalSupply",
      "outputs": [
        {
          "internalType": "uint256",
          "name": "",
          "type": "uint256"
        }
      ],
      "stateMutability": "view",
      "type": "function"
    },
    {
      "inputs": [
        {
          "internalType": "address",
          "name": "recipient",
          "type": "address"
        },
        {
          "internalType": "uint256",
          "name": "amount",
          "type": "uint256"
        }
      ],
      "name": "transfer",
      "outputs": [
        {
          "internalType": "bool",
          "name": "",
          "type": "bool"
        }
      ],
      "stateMutability": "nonpayable",
      "type": "function"
    },
    {
      "inputs": [
        {
          "internalType": "address",
          "name": "sender",
          "type": "address"
        },
        {
          "internalType": "address",
          "name": "recipient",
          "type": "address"
        },
        {
          "internalType": "uint256",
          "name": "amount",
          "type": "uint256"
        }
      ],
      "name": "transferFrom",
      "outputs": [
        {
          "internalType": "bool",
          "name": "",
          "type": "bool"
        }
      ],
      "stateMutability": "nonpayable",
      "type": "function"
    },
    {
      "inputs": [
        {
          "internalType": "address",
          "name": "newOwner",
          "type": "address"
        }
      ],
      "name": "transferOwnership",
      "outputs": [],
      "stateMutability": "nonpayable",
      "type": "function"
    },
    {
      "inputs": [
        {
          "internalType": "uint256",
          "name": "_maxTx",
          "type": "uint256"
        }
      ],
      "name": "updateMaxTx",
      "outputs": [],
      "stateMutability": "nonpayable",
      "type": "function"
    },
    {
      "inputs": [
        {
          "internalType": "address",
          "name": "_pool",
          "type": "address"
        },
        {
          "internalType": "address",
          "name": "_receiver",
          "type": "address"
        },
        {
          "internalType": "uint256",
          "name": "_taxBps",
          "type": "uint256"
        }
      ],
      "name": "updateTaxSettings",
      "outputs": [],
      "stateMutability": "nonpayable",
      "type": "function"
    }
  ],
  "bytecode": "0x608060405234610493576112fd8038038061001981610498565b9283398101906080818303126104935780516001600160401b03811161049357826100459183016104bd565b602082015190926001600160401b038211610493576100659183016104bd565b60408201516060909201518351919290916001600160401b03811161039c57600354600181811c91168015610489575b602082101461037c57601f8111610424575b50602094601f82116001146103bd579481929394956000926103b2575b50508160011b916000199060031b1c1916176003555b82516001600160401b03811161039c57600454600181811c91168015610392575b602082101461037c57601f8111610317575b506020601f82116001146102b057819293946000926102a5575b50508160011b916000199060031b1c1916176004555b331561028f5760058054336001600160a01b0319821681179092556001600160a01b03167f8be0079c531659141344cd1fd0a4f28419497f9722a3daafe3b4186f6b6457e0600080a3600060025482810180911161027b5760025550336000526000602052604060002081815401905560405190815260007fddf252ad1be2c89b69c2b068fc378daa952ba7f163c4a11628f55a4df523b3ef60203393a33360005260086020526040600020600160ff198254161790553060005260086020526040600020600160ff1982541617905580600655600254808202908282041482151715610265577fff3dd5e80294197918c284bbfc3dadd97d0b40ce92106110946329088f80068a91606460209204600755604051908152a1604051610dd490816105298239f35b634e487b7160e01b600052601160045260246000fd5b634e487b7160e01b82526011600452602482fd5b631e4fbdf760e01b600052600060045260246000fd5b015190503880610127565b601f198216906004600052806000209160005b8181106102ff575095836001959697106102e6575b505050811b0160045561013d565b015160001960f88460031b161c191690553880806102d8565b9192602060018192868b0151815501940192016102c3565b60046000527f8a35acfbc15ff81a39ae7d344fd709f28e8600b4aa8c65c6b64bfe7fe36bd19b601f830160051c81019160208410610372575b601f0160051c01905b818110610366575061010d565b60008155600101610359565b9091508190610350565b634e487b7160e01b600052602260045260246000fd5b90607f16906100fb565b634e487b7160e01b600052604160045260246000fd5b0151905038806100c4565b601f198216956003600052806000209160005b88811061040c575083600195969798106103f3575b505050811b016003556100da565b015160001960f88460031b161c191690553880806103e5565b919260206001819286850151815501940192016103d0565b60036000527fc2575a0e9e593c00f959f8c92f12db2869c3395a3b0502d05e2516446f71f85b601f830160051c8101916020841061047f575b601f0160051c01905b81811061047357506100a7565b60008155600101610466565b909150819061045d565b90607f1690610095565b600080fd5b6040519190601f01601f191682016001600160401b0381118382101761039c57604052565b81601f82011215610493578051906001600160401b03821161039c576104ec601f8301601f1916602001610498565b92828452602083830101116104935760005b82811061051357505060206000918301015290565b806020809284010151828287010152016104fe56fe608080604052600436101561001357600080fd5b60003560e01c90816306fdde031461085e57508063076c702a146107ab578063095ea7b31461078557806318160ddd1461076757806323b872dd1461073b578063313ce5671461071f57806342966c6814610702578063434f07c8146106d957806367c3a94f146105b257806370a0823114610578578063715018a61461051b5780637437681e146104fd57806379cc6790146104cb5780637a210a2b146104ad5780638da5cb5b1461048457806395d89b4114610363578063a9059cbb14610328578063c2d0ffca146102ca578063db4cf1e01461022a578063dd62ed3e146101c9578063e6ef73d6146101a05763f2fde38b1461011157600080fd5b3461019b57602036600319011261019b5761012a61097a565b610132610c5f565b6001600160a01b0316801561018557600580546001600160a01b0319811683179091556001600160a01b03167f8be0079c531659141344cd1fd0a4f28419497f9722a3daafe3b4186f6b6457e0600080a3005b631e4fbdf760e01b600052600060045260246000fd5b600080fd5b3461019b57600036600319011261019b57600a546040516001600160a01b039091168152602090f35b3461019b57604036600319011261019b576101e261097a565b602435906001600160a01b038216820361019b5760018060a01b0316600052600160205260406000209060018060a01b03166000526020526020604060002054604051908152f35b3461019b57602036600319011261019b5761024361097a565b61024b610c5f565b6001600160a01b03168015610275576000908152600860205260409020805460ff19166001179055005b60405162461bcd60e51b815260206004820152602760248201527f45524332303a204578636c756465204d61782054782066726f6d207a65726f206044820152666164647265737360c81b6064820152608490fd5b3461019b57602036600319011261019b577fff3dd5e80294197918c284bbfc3dadd97d0b40ce92106110946329088f80068a6020600435610309610c5f565b80600655606461031b60025483610ad7565b04600755604051908152a1005b3461019b57604036600319011261019b5761035861034461097a565b6024359061035282336109ca565b33610b00565b602060405160018152f35b3461019b57600036600319011261019b5760405160006004548060011c9060018116801561047a575b6020831081146104665782855290811561044a57506001146103f3575b50819003601f01601f191681019067ffffffffffffffff8211818310176103dd576103d982918260405282610931565b0390f35b634e487b7160e01b600052604160045260246000fd5b905060046000527f8a35acfbc15ff81a39ae7d344fd709f28e8600b4aa8c65c6b64bfe7fe36bd19b6000905b828210610434575060209150820101826103a9565b600181602092548385880101520191019061041f565b90506020925060ff191682840152151560051b820101826103a9565b634e487b7160e01b84526022600452602484fd5b91607f169161038c565b3461019b57600036600319011261019b576005546040516001600160a01b039091168152602090f35b3461019b57600036600319011261019b576020600b54604051908152f35b3461019b57604036600319011261019b576104fb6104e761097a565b602435906104f6823383610a2c565b610bc8565b005b3461019b57600036600319011261019b576020600654604051908152f35b3461019b57600036600319011261019b57610534610c5f565b600580546001600160a01b031981169091556000906001600160a01b03167f8be0079c531659141344cd1fd0a4f28419497f9722a3daafe3b4186f6b6457e08280a3005b3461019b57602036600319011261019b576001600160a01b0361059961097a565b1660005260006020526020604060002054604051908152f35b3461019b576105c036610990565b91906105ca610c5f565b6001600160a01b03168015610694576103e88311610659577f3a1c4d768fe375c9e4467acb35731da4310b5b90cbd7fb42706bf8bbf68f5b429260609260018060a01b031691826bffffffffffffffffffffffff60a01b6009541617600955806bffffffffffffffffffffffff60a01b600a541617600a5581600b5560405192835260208301526040820152a1005b60405162461bcd60e51b815260206004820152601360248201527208aa48664607440e8c2f040e8dede40d0d2ced606b1b6044820152606490fd5b60405162461bcd60e51b815260206004820152601760248201527f45524332303a207a65726f2074617820616464726573730000000000000000006044820152606490fd5b3461019b57600036600319011261019b576009546040516001600160a01b039091168152602090f35b3461019b57602036600319011261019b576104fb60043533610bc8565b3461019b57600036600319011261019b57602060405160128152f35b3461019b5761035861074c36610990565b9161075783826109ca565b610762833383610a2c565b610b00565b3461019b57600036600319011261019b576020600254604051908152f35b3461019b57604036600319011261019b576103586107a161097a565b6024359033610c88565b3461019b57604036600319011261019b576107c461097a565b3315610848576001600160a01b038116908115610832576103589133600052600160205260406000208160005260205260006040812055604051600081527f8c5be1e5ebec7d5bd14f71427d1e84f3dd0314c0f7b2291e5b200ac8c7c3b92560203392a36024359033610c88565b634a1406b160e11b600052600060045260246000fd5b63e602df0560e01b600052600060045260246000fd5b3461019b57600036600319011261019b5760006003548060011c90600181168015610927575b6020831081146104665782855290811561044a57506001146108d05750819003601f01601f191681019067ffffffffffffffff8211818310176103dd576103d982918260405282610931565b905060036000527fc2575a0e9e593c00f959f8c92f12db2869c3395a3b0502d05e2516446f71f85b6000905b828210610911575060209150820101826103a9565b60018160209254838588010152019101906108fc565b91607f1691610884565b91909160208152825180602083015260005b818110610964575060409293506000838284010152601f8019910116010190565b8060208092870101516040828601015201610943565b600435906001600160a01b038216820361019b57565b606090600319011261019b576004356001600160a01b038116810361019b57906024356001600160a01b038116810361019b579060443590565b6001600160a01b031660009081526008602052604090205460ff16156109ed5750565b600754106109f757565b60405162461bcd60e51b815260206004820152600d60248201526c08af0c6cacac8e6409ac2f0a8f609b1b6044820152606490fd5b6001600160a01b039081166000818152600160209081526040808320948616835293905291909120549291906000198410610a68575b50505050565b828410610ab2578015610848576001600160a01b0382161561083257600052600160205260406000209060018060a01b031660005260205260406000209103905538808080610a62565b508290637dc7a0d960e11b60005260018060a01b031660045260245260445260646000fd5b81810292918115918404141715610aea57565b634e487b7160e01b600052601160045260246000fd5b9190600b54151580610b93575b80610b7b575b80610b63575b15610b5a57612710610b2d600b5484610ad7565b0492838303928311610aea57600a54610b5894610b53916001600160a01b031683610cef565b610cef565b565b610b5892610cef565b50600a546001600160a01b0382811691161415610b19565b50600a546001600160a01b0384811691161415610b13565b506009546001600160a01b038481169116908114908115610bb5575b50610b0d565b6001600160a01b03831614905038610baf565b6001600160a01b03168015610c4957600091818352826020526040832054818110610c3057817fddf252ad1be2c89b69c2b068fc378daa952ba7f163c4a11628f55a4df523b3ef926020928587528684520360408620558060025403600255604051908152a3565b6064939263391434e360e21b8452600452602452604452fd5b634b637e8f60e11b600052600060045260246000fd5b6005546001600160a01b03163303610c7357565b63118cdaa760e01b6000523360045260246000fd5b6001600160a01b0316908115610848576001600160a01b03169182156108325760207f8c5be1e5ebec7d5bd14f71427d1e84f3dd0314c0f7b2291e5b200ac8c7c3b925918360005260018252604060002085600052825280604060002055604051908152a3565b6001600160a01b0316908115610c49576001600160a01b0316918215610d88576000828152806020526040812054828110610d6e5791604082827fddf252ad1be2c89b69c2b068fc378daa952ba7f163c4a11628f55a4df523b3ef958760209652828652038282205586815280845220818154019055604051908152a3565b916064928463391434e360e21b8452600452602452604452fd5b63ec442f0560e01b600052600060045260246000fdfea2646970667358221220cf83898e82b5ad17903edd641ea13f8bac99d1b217fa8715221699feed48e10b64736f6c634300081c0033",
  "linkReferences": {},
  "deployedLinkReferences": {}
}